S015000050726F6772657373207461736B2E73726563E7
S11300008AC00000A9C00000A7C00000A5C000006D
S1130010A3C00000D4C30000ADC300009DC0000015
S11300200C94360E99C0000097C0000095C00000E3
S113003093C0000091C000008FC000008DC000007C
S11300408BC0000089C0000087C0000085C000008C
S113005083C0000081C000007FC000007DC000009C
S11300607BC0000079C0000077C0000075C00000AC
S113007073C0000071C000006FC000006DC00000BC
S11300806BC0000069C0000067C0000065C00000CC
S113009063C0000061C000005FC000005DC00000DC
S11300A05BC0000059C0000057C0000055C00000EC
S11300B053C0000051C000004FC000004DC00000FC
S11300C04BC0000049C0000047C0000047C2000008
S11300D043C0000041C000003FC000003DC000001C
S11300E03BC000002C07E6062F07E906EC06EF06E6
S11300F0F206F506F806FB06FE06010704070707E5
S11301000A070D0710071307160719071C071F070F
S113011022072507280711241FBECFEFD1E2DEBF37
S1130120CDBF00E00CBF12E0A0E0B2E0E8EAF0E2EC
S113013000E00BBF02C007900D92A035B107D9F7BC
S113014023E0A0E5B2E001C01D92A03BB207E1F7B5
S11301500E94960E0C94521053CFF89417B83B9A01
S11301607894089587B1876F87B988B1807888B902
S1130170089586E69EE00197F1F7000040984198C3
S113018080E388B9429AEFEFF7E43197F1F700C0C2
S113019000004298E6E6FEE03197F1F7000040984F
S11301A0419888B9429AEFEFF7E43197F1F700C02C
S11301B000004298E6E6FEE03197F1F7000040982F
S11301C0419888B9429A8FEF97E40197F1F700C0FC
S11301D000004298E6E6FEE03197F1F7000040980F
S11301E0419880E288B9429A86E69EE00197F1F749
S11301F000004298089598B19F7098B998B1282F3B
S1130200207F922B98B940984198429AEFEFF7E4F7
S11302103197F1F700C00000429898B19F7098B9E7
S113022098B18295807F892B88B940984198429AE9
S11302308FEF97E40197F1F700C00000429808950A
S113024086E69EE00197F1F7000088E2D4DF81E0C2
S1130250D2DF86E0D0DF8EE0CEDF80E8CCCF089519
S113026098B19F7098B998B1282F207F922B98B994
S1130270409A4198429AEFEFF7E43197F1F700C0C2
S11302800000429898B19F7098B998B18295807F88
S1130290892B88B9409A4198429A8FEF97E4019745
S11302A0F1F700C000004298089580E8A4CF0895B3
S11302B0CF93DF93EC018881882329F02196D0DF46
S11302C089918111FCCFDF91CF910895823069F03B
S11302D018F4813031F00895833059F0843069F096
S11302E008958FE7860F87CF08958FEB860F83CF0E
S11302F0089583E9860F7FCF089583ED860F7BCF22
S113030008950F931F93CF93DF938A01E901882304
S113031011F0611102C0C9DF01C0D8DFC530D105B9
S113032009F0D9C09801329522952F7023273F7088
S11303302327A7E4B3E00E94D50F96958795969559
S1130340879596958795C096909396038093950389
S113035087DF980136952795369527953695279505
S1130360A5ECB0E20E94D50FAC01529542954F70B6
S113037045275F70452750939D0340939C039A0142
S1130380ADECBCEC0E94D50F969587959695879514
S1130390969587959C01220F331F880F991F880F0C
S11303A0991F880F991F820F931F9A01281B390BDD
S11303B0C901C0969093AD038093AC0351DF03C091
S11303C0C330D10589F5980136952795369527953B
S11303D0ABE7B4E10E94D50FAC0156954795509315
S11303E09D0340939C039A01ADECBCEC0E94D50F95
S11303F09695879596958795969587959C01220F56
S1130400331F880F991F880F991F880F991F820F18
S1130410931F9A01281B390BC901C0969093A80316
S11304208093A7031DDF04C0C230D10509F058C072
S11304309801ADECBCEC0E94D50FAC0156954795E4
S1130440569547955695479550939D0340939C0325
S11304509A010E94D50F96958795969587959695BE
S113046087959C01220F331F880F991F880F991FAE
S1130470880F991F820F931F9A01281B390BC901FA
S1130480C0969093A5038093A403EADE9801ADEC93
S1130490BCEC0E94D50F9695879596958795969571
S11304A087959C01220F331F880F991F880F991F6E
S11304B0880F991F820F931F9801281B390BC901BC
S11304C0C0969093AB038093AA03CADE269764F088
S11304D085E4C6DE09C0C430D10509F071CF39CF37
S11304E0C130D10599F7D2CFDF91CF911F910F91F0
S11304F00895E1EDF0E010821092D00086E0809340
S1130500D2008FE58093D4001092D50088E98083CF
S11305100895F8942EDE94DE61E081E0D7DE109237
S1130520260310922503809127038332B1F08A3089
S113053021F461E082E0CADE01C092DE80912503ED
S11305409091260301969093260380932503FC0142
S1130550E95DFC4F8081833251F708951F920F9219
S11305600FB60F9211240BB60F922F933F934F9314
S11305705F936F937F938F939F93AF93BF93CF9327
S1130580EF93FF93C091D600C093A60366EA73E08D
S113059087E293E00E941810C33209F4BADFFF9196
S11305A0EF91CF91BF91AF919F918F917F916F9177
S11305B05F914F913F912F910F900BBE0F900FBE03
S11305C00F901F901895259A2D9A0895269A2E9A81
S11305D00895279A2F9A0895F6DFF8DFFACF089541
S11305E0E1E8F0E010828CEF8093850081E0809355
S11305F0840093E0909389008FEF80938800909318
S11306008B0080938A0090938D0080938C0090934C
S11306108700809386008BEA80938000109282008A
S11306208CE08083089583E0809389008FEF80932A
S11306308800089583E080938B008FEF80938A0075
S1130640089583E080938D008FEF80938C0008954C
S1130650F894C2DFC5DF7894089510BA11BA1092E5
S11306600701109208010895EAE7F0E01082109261
S11306707B0080E280937C0080E880BF86E88083F2
S11306800895EBDFF1CF0895883018F098E0909347
S11306907B008770806280937C00EAE7F0E08081D1
S11306A080648083808184FFFDCF80917900EAE7B4
S11306B0F0E090819061908310927B000895E4DFD4
S11306C080939F0390E0089581B18F6081B982B1D6
S11306D0807F82B9EAE0F1E0808188618083EBE089
S11306E0F1E08081886180830895E1E2F1E0108285
S11306F08FEF8093250191E09093240110922901BA
S11307008093280110922B0180932A0110922D01CD
S113071080932C0189EA809320018BE080830895E3
S113072092B1907F8F70982B92B9089586E0F8CF9C
S1130730089585E0F5CF08958AE0F2CF089580E02A
S1130740EFCF08956C98749A08956D98759A0895EA
S1130750F894EAE6F0E0808182608083EC9A7894F1
S11307600895F894EAE6F0E0808188608083ED9A49
S1130770789408951F920F920FB60F9211248F93BD
S11307809F93AF93BF9380918B0390918C03A0911F
S11307908D03B0918E030196A11DB11D80938B032F
S11307A090938C03A0938D03B0938E03BF91AF916C
S11307B09F918F910F900FBE0F901F9018951F92CD
S11307C00F920FB60F9211248F939F93AF93BF9301
S11307D080918F0390919003A0919103B091920323
S11307E00196A11DB11D80938F0390939003A09354
S11307F09103B0939203BF91AF919F918F910F900A
S11308000FBE0F901F901895CF92DF92EF92FF9238
S11308100F931F93BC0180E090E00E943F0F28E4F7
S113082031EE42E850E40E94AB0E0E94130FAB017C
S113083060E070E010928B0310928C0310928D0391
S113084010928E0310928F031092900310929103D2
S11308501092920391E0E0E000918B0310918C03DD
S113086020918D0330918E03C0908F03D09090031C
S1130870E0909103F0909203892F0417150726073F
S1130880370708F48E2F811109C0892FC416D506A5
S1130890E606F70608F48E2F8823F1F250DF1F9145
S11308A00F91FF90EF90DF90CF900895CF93DF9357
S11308B0EC013FDFCE01A8DFDF91CF910895CF9304
S11308C0DF93EC0139DFCE019FDFDF91CF910895F3
S11308D0F894FADE37DF39DF3BDF43DF06DF789455
S11308E008951092890089E6809388002FEF8FE79E
S11308F094E0215080409040E1F700C00000109245
S11309008B008FE580938A002FEF8FEF9CE22150BC
S113091080409040E1F700C0000093DE2FEF8FEF9E
S113092098E0215080409040E1F700C0000082DE52
S11309302FEF8FEF98E0215080409040E1F700C006
S1130940000071CE08950F931F93CF93DF9329E88E
S113095030E0E901188208E810E089E6F8018083B4
S1130960FFEF4FE754E0F15040405040E1F700C042
S11309700000ABE8B0E01C92EAE8F0E098E5908370
S11309809FEFCFEFD8E09150C040D040E1F700C0D6
S113099000006DE870E0EB0118824CE850E090E252
S11309A0EA019883DFEF9FEFCCE2D1509040C04042
S11309B0E1F700C000001C929BE19083DFEF9FEF02
S11309C0CCE2D1509040C040E1F700C00000EB0100
S11309D018829FE3EA019883DFEF4FEF5CE2D15086
S11309E040405040E1F700C00000E9011882E801EE
S11309F08883DFEF2FE744E0D15020404040E1F707
S1130A0000C000001C928FE580835FEF8FEF9CE2B3
S1130A10515080409040E1F700C0000004DE0ADE3F
S1130A20DF91CF911F910F910895AF92BF92CF9212
S1130A30DF92EF92FF920F931F93CF93DF930F2ECA
S1130A40F9E8CF2ED12CF02DF60110820F2EF8E804
S1130A50EF2EF12CF02D0F2EF9E6AF2EF02DF7012D
S1130A60A082FFEF2FE784E0F15020408040E1F7BF
S1130A7000C000000BE810E0F8011082CAE8D0E0E2
S1130A800F2EFFE5BF2EF02DB882FFEF2FEF88E089
S1130A90F15020408040E1F700C00000ADE8B0E034
S1130AA01C924CE850E080E2FA018083FFEF2FE7CC
S1130AB086E1F15020408040E1F700C00000F801D9
S1130AC0108284E38883FFEF2FEF88E0F150204009
S1130AD08040E1F700C00000F601108280E5F701D4
S1130AE08083FFEF2FEF8CE2F15020408040E1F74C
S1130AF000C000001C928FE3FA018083FFEF2FE710
S1130B0084E0F15020408040E1F700C0000092DD15
S1130B109FEFEFEFFCE29150E040F040E1F700C0BE
S1130B200000F6011082F701A082FFEF2FE786E1B3
S1130B30F15020408040E1F700C00000F80110822D
S1130B40B882FFEF2FEF8CE2F15020408040E1F7B4
S1130B5000C0000068DD6EDDDF91CF911F910F9121
S1130B60FF90EF90DF90CF90BF90AF9008951092D8
S1130B70890089E6809388002FEF8FE796E1215062
S1130B8080409040E1F700C0000010928B008CE19F
S1130B9080938A002FEF8FEF9CE221508040904099
S1130BA0E1F700C0000010928D0080E280938C0079
S1130BB02FEF8FE79FE1215080409040E1F700C084
S1130BC000008FCE089583E07ADD8093240382E0D1
S1130BD076DD8093230381E072DD80932203089500
S1130BE02F923F924F925F926F927F928F929F9239
S1130BF0AF92BF92CF92DF92EF92FF920F931F9327
S1130C00CF93DF937C01F89463DE7894C0E0D0E066
S1130C10512C0F2EF8E2AF2EBB24B394F02D1BE918
S1130C200F2EFAE2CF2EDD24D394F02D0F2EF1E710
S1130C304F2EF02D01E00F2EF6E73F2EF02D812CE4
S1130C40912C66246394712CBEDFBDDF8091230355
S1130C50803608F48AC06ADDF5011083F60110833A
S1130C60B2DF202E06C062DDF5011083F60140825A
S1130C70202EA9DF80912403873468F08091230318
S1130C80893248F0211079C051DDF5014082F60126
S1130C901083202E72C097DF809122038F3540F499
S1130CA0211006C043DDF5013082F6011083202EA9
S1130CB08ADF80912203873460F080912303893294
S1130CC040F0211006C032DDF5011083F6014082A8
S1130CD0202E79DF809123038F3578F480912403CB
S1130CE08F3558F4809122038F3538F4211005C0D4
S1130CF0F5011082F601108222DD65DF8091230365
S1130D00803688F0809124038036C8F15CDFFFEFE1
S1130D102FE78DE0F15020408040E1F700C0000053
S1130D20862D972D02C0882D992DC80FD91F22E03A
S1130D3030E0AE016AE082E0E4DACE15DF0509F0C6
S1130D4083CF9FEFEFE7FDE09150E040F040E1F703
S1130D5000C00000F4DC2FEF8FE796E121508040C3
S1130D609040E1F700C0000012C02DDF8091240301
S1130D708F3508F478CF252C7CCF25DF99CF80914F
S1130D802203803608F0C2CF882D992DCECFDF9173
S1130D90CF911F910F91FF90EF90DF90CF90BF9074
S1130DA0AF909F908F907F906F905F904F903F9007
S1130DB02F90089501978931910508F04CC0FC01EA
S1130DC08827EE58FF4F8F4F0C94CD0F25E032E06B
S1130DD048C02BE032E045C02EE032E042C021E1C1
S1130DE032E03FC024E132E03CC027E132E039C0C8
S1130DF02AE132E036C02DE132E033C020E232E0B5
S1130E0030C023E232E02DC026E232E02AC029E2DB
S1130E1032E027C02CE232E024C02FE232E021C0CD
S1130E2022E332E01EC025E332E01BC028E332E0B7
S1130E3018C02BE332E015C02EE332E012C021E4E7
S1130E4032E00FC024E432E00CC027E432E009C0F1
S1130E502AE432E006C0089522E032E002C028E02D
S1130E6032E0822F932F0895EF92FF920F931F93F6
S1130E70CF93DF93082FC62FF42EE22EF89479D95E
S1130E80DFD9789410E00F191109D0E0CE19D109F7
S1130E9011230CF06EC08091000290910102019721
S1130EA0B1F488E590E00BDD10920102109200028B
S1130EB081E090E09093550280935402109257027F
S1130EC0109256021092530210925202C6C08091A0
S1130ED0540290915502019799F4109201021092D4
S1130EE0000281E090E090935502809354021092A6
S1130EF05702109256021092530210925202ADC041
S1130F0080915602909157020197B1F488E590E0E0
S1130F10CDDC109201021092000281E090E09093E7
S1130F205502809354021092570210925602109266
S1130F3053021092520291C0809152029091530236
S1130F40019709F08AC085EB90E0B9DC10920102A8
S1130F501092000281E090E0909355028093540235
S1130F60109257021092560210925302109252029B
S1130F7074C0101611060CF06DC08091000290919F
S1130F8001020197B1F488E590E090DC109201022F
S1130F9010920002109255021092540210925702BD
S1130FA01092560281E090E0909353028093520293
S1130FB054C080915402909155020197B1F485EB8D
S1130FC090E07DDC10920102109200021092550212
S1130FD010925402109257021092560281E090E04F
S1130FE0909353028093520238C08091560290919C
S1130FF057020197B1F488E590E061DC1092010298
S1131000109200021092550210925402109257024C
S11310101092560281E090E0909353028093520222
S11310201CC080915202909153020197B1F4109226
S11310300102109200021092550210925402109272
S113104057021092560281E090E0909353028093ED
S1131050520203C00115110541F0C801992324F47B
S113106088279927801B910BBBDDDD230CF068C01A
S11310708091000290910102019769F41092550247
S11310801092540210925702109256021092530278
S113109010925202C8C08091540290915502019757
S11310A0B1F488E590E002DC81E090E090930102E5
S11310B0809300021092550210925402109257022B
S11310C0109256021092530210925202ACC08091B8
S11310D05602909157020197B1F485EB90E0EFDB53
S11310E081E090E0909301028093000210925502F7
S11310F01092540210925702109256021092530208
S11311001092520290C08091520290915302019722
S113111009F089C088E590E0D2DB81E090E090930B
S11311200102809300021092550210925402109210
S1131130570210925602109253021092520273C038
S11311401C161D060CF06DC08091000290910102E6
S11311500197B1F485EB90E0A9DB109201021092A3
S11311600002109255021092540281E090E0909394
S1131170570280935602109253021092520253C0A7
S113118080915402909155020197B1F488E590E062
S113119096DB1092010210920002109255021092F6
S11311A0540281E090E0909357028093560210928B
S11311B053021092520237C0809156029091570206
S11311C0019799F4109201021092000210925502B4
S11311D01092540281E090E090935702809356025B
S11311E010925302109252021EC0809152029091AA
S11311F053020197C1F488E590E058DB1092010294
S113120010920002109255021092540281E090E074
S113121090935702809356021092530210925202F6
S113122002C0209741F0CE01DD2324F488279927BA
S11312308C1B9D0BD5DCCEEBCF0DC43008F09FC3C7
S113124081E3E81296C38091000290910102019714
S1131250B1F488E590E02ADB1092010210920002BA
S11312601092550210925402109257021092560294
S113127081E090E090935302809352029EC180914A
S11312805402909155020197B1F485EB90E00EDB86
S11312901092010210920002109255021092540210
S11312A0109257021092560281E090E090935302FC
S11312B08093520282C18091560290915702019705
S11312C0B1F488E590E0FBDA10920102109200027A
S11312D01092550210925402109257021092560224
S11312E081E090E0909353028093520266C1809112
S11312F0520290915302019709F05FC110920102CA
S11313001092000210925502109254021092570249
S11313101092560281E090E090935302809352021F
S11313204CC186E4F8126EC08091000290910102D3
S11313300197B1F485EB90E0B9DA109201021092B2
S11313400002109255021092540281E090E09093B2
S11313505702809356021092530210925202BBC05D
S113136080915402909155020197B1F485EB90E07D
S1131370A6DA109201021092000210925502109205
S1131380540281E090E090935702809356021092A9
S11313905302109252029FC08091560290915702BC
S11313A0019799F4109201021092000210925502D2
S11313B01092540281E090E0909357028093560279
S11313C0109253021092520286C080915202909160
S11313D05302019709F07FC088E590E067DA109224
S11313E0010210920002109255021092540281E000
S11313F090E09093570280935602109253021092F9
S1131400520269C081E4F81266C080910002909192
S11314100102019769F4109255021092540210923D
S1131420570210925602109253021092520253C065
S113143080915402909155020197B1F488E590E0AF
S113144035DA81E090E090930102809300021092DB
S113145055021092540210925702109256021092A2
S113146053021092520237C0809156029091570253
S11314700197B1F485EB90E022DA81E090E090935B
S113148001028093000210925502109254021092AD
S113149057021092560210925302109252021BC02D
S11314A080915202909153020197A9F488E590E04B
S11314B006DA81E090E0909301028093000210929A
S11314C05502109254021092570210925602109232
S11314D0530210925202C43008F06FC086E3E8123F
S11314E06CC080910002909101020197B1F488E5EB
S11314F090E0E5D9109201021092000281E090E0A0
S113150090935502809354021092570210925602FF
S1131510109253021092520250C080915402909142
S11315205502019799F4109201021092000281E091
S113153090E09093550280935402109257021092B7
S11315405602109253021092520237C080915602F2
S1131550909157020197B1F488E590E0A7D91092D1
S113156001021092000281E090E090935502809372
S11315705402109257021092560210925302109283
S113158052021BC080915202909153020197A9F418
S113159085EB90E094D9109201021092000281E050
S11315A090E0909355028093540210925702109247
S11315B0560210925302109252028091200390918D
S11315C02103009709F07EC181E4F812DEC181E3B2
S11315D0E812CBC18091000290910102019771F44D
S11315E08CE290E063D921DA8CE290E068D981E062
S11315F090E0909321038093200355C1809154027D
S113160090915502019771F487E890E04FD90DDA73
S113161087E890E054D981E090E09093210380938F
S1131620200341C180915602909157020197F1F431
S113163087E890E044D9F9D98DE290E040D981E07F
S113164090E090930102809300021092570210924E
S113165056021092550210925402109253021092A4
S1131660520290932103809320031DC18091520262
S113167090915302019709F016C18DE290E01FD9B1
S1131680D4D98DE290E01BD981E090E090930102DF
S11316908093000210925702109256021092550243
S11316A0109254021092530210925202909321030A
S11316B080932003F8C08091000290910102019769
S11316C071F48DE290E0FBD8B0D98DE290E0EED8D1
S11316D081E090E09093210380932003E4C0809103
S11316E0540290915502019771F48DE290E0DED896
S11316F09CD98DE290E0E3D881E090E090932103BF
S113170080932003D0C08091560290915702019794
S113171071F487E890E0CAD888D987E890E0CFD8F8
S113172081E090E09093210380932003BCC08091DA
S1131730520290915302019709F0B5C087E890E0F6
S1131740BED873D987E890E0B1D881E090E0909357
S1131750210380932003A7C086E3E81251C080913F
S1131760000290910102019771F482E890E0A7D8F9
S11317705CD985E890E09AD881E090E090932103C9
S11317808093200307C180915402909155020197E0
S113179071F48DE290E093D848D98DE290E086D838
S11317A081E090E09093210380932003F3C0809123
S11317B0560290915702019771F48DE290E076D829
S11317C034D98DE290E07BD881E090E090932103BE
S11317D080932003DFC080915202909153020197BD
S11317E009F061C087E890E061D81FD987E890E0EC
S11317F066D881E090E09093210380932003CAC0CF
S113180081E3E81250C08091000290910102019797
S113181071F487E890E04AD808D987E890E04FD877
S113182081E090E09093210380932003B3C08091E2
S1131830540290915502019771F487E890E03FD8E3
S1131840F4D887E890E032D881E090E090932103C7
S1131850809320039FC08091560290915702019774
S113186071F48DE290E02BD8E0D88DE290E01ED8A0
S113187081E090E090932103809320038BC08091BA
S1131880520290915302019771F48DE290E00ED8C8
S1131890CCD88DE290E013D881E090E090932103BE
S11318A08093200377C08091200390912103892B9A
S11318B009F070C081E090E09093210380932003AD
S11318C042D868C0019709F065C0809100029091E8
S11318D00102019771F48DE290E00E945F0447D900
S11318E08DE290E00E94560410922103109220038E
S11318F051C08091540290915502019771F48DE288
S113190090E00E94560433D98DE290E00E945F0477
S113191010922103109220033DC0809156029091B1
S11319205702019771F487E890E00E9456041FD98A
S113193087E890E00E945F04109221031092200334
S113194029C08091520290915302019719F587E8BA
S113195090E00E945F040BD987E890E00E9456044F
S1131960109221031092200315C086E3E8129BCF46
S1131970A2CE8EEC8E0D843008F4D3CCAFCD8EEC99
S11319808E0D843008F019CECCCC86E4F81609F418
S1131990E3CE90CFDF91CF911F910F91FF90EF9005
S11319A008958F929F92AF92BF92CF92DF92EF925F
S11319B0FF920F931F93CF93DF93CDB7DEB7DA95E2
S11319C00FB6F894DEBF0FBECDBF1A821982FE0196
S11319D0339680E3DF011D928A95E9F71CAA1BAABE
S11319E0F29682E6DF011D928A95E9F781E491E39C
S11319F0C956DF4F99838883C759D040C756DF4FF4
S1131A0019821882C959D040E7E9F0E0EC0FFD1FB4
S1131A10349680E6DF011D928A95E9F780912703C9
S1131A208A3071F0DE011196E8E2F3E0E12CF12C4A
S1131A308D932FEFE21AF20A81918A30C9F702C01E
S1131A40E12CF12C6DE472E0CE010196EED2009708
S1131A5069F0BAD2AFD9BC018CEB92E0E9D26DE463
S1131A6072E080E090E0E1D2009799F7F701E95D38
S1131A70FC4F10811332F9F0C701885D9C4F4C0173
S1131A80A12CB12CC12ED12CC601C8D2892B21F492
S1131A90C601B7D2892B39F0F501E85AFD4F1083FE
S1131AA09FEFA91AB90AAFEFEA1AFA0AF4011191E1
S1131AB04F01133239F7F701E85AFD4F108228E538
S1131AC032E0FE01F3968CEB92E000E010E040E09F
S1131AD050E0790118C0D9017C91708311966C9102
S1131AE0618372836383DC017C91748311966C91AE
S1131AF0658376836783085F1F4F4E5F5F4F2E5F5A
S1131B003F4F38960296D7010D900020E9F71197C0
S1131B10A855B2404A175B07F0F2FE01E00FF11F2F
S1131B2011AABE016D5C7F4FCE0189569F4F80D2B2
S1131B30F8940E94B9000E9420017894CE0189563D
S1131B409F4F0E945801BFEFEFEFFCE2B150E0401D
S1131B50F040E1F700C00000CE0189569F4F7C01A0
S1131B60C12CD12C5C0154C0D7011C91C550DF4F4E
S1131B701883CB5FD04011969C901197C450DF4FCF
S1131B809882CC5FD040C350DF4F1882CD5FD040E5
S1131B9012968C901297C250DF4F8882CE5FD0404D
S1131BA013960C91C150DF4F0883CF5FD040C050D3
S1131BB0DF4F1882C050D140F8940E94B9000E94AF
S1131BC02001789464E082E00E946601CE01855091
S1131BD09F4F0E94580166E082E00E946601CE0198
S1131BE082509F4F0E945801BFEFEFEFFCE2B150CB
S1131BF0E040F040E1F700C00000202F482D692D9F
S1131C00812F32D924E0C20ED11C84E0E80EF11CED
S1131C10F50101900020E9F73197EA19FB09CE1686
S1131C20DF0608F4A1CFD3950FB6F894DEBF0FBE3C
S1131C30CDBFDF91CF911F910F91FF90EF90DF9077
S1131C40CF90BF90AF909F908F9008958DB1807882
S1131C508DB98EB18F678EB90895F894EAE6F0E0F5
S1131C6080818083EF9AE79A789408951F920F9267
S1131C700FB60F9211240BB60F922F933F934F93ED
S1131C805F936F937F938F939F93AF93BF93CF9300
S1131C90DF93EF93FF930E947104D8E0D8B92FEF3C
S1131CA08FEF9CE2215080409040E1F700C000009B
S1131CB0C7EFC8B92FEF8FE794E0215080409040E0
S1131CC0E1F700C000006DDE2FEF8FE794E02150B4
S1131CD080409040E1F700C00000D8B92FEF8FEFAB
S1131CE090EE215080409040E1F700C00000C8B958
S1131CF02FEF8FE794E0215080409040E1F700C03F
S1131D000000FF91EF91DF91CF91BF91AF919F912F
S1131D108F917F916F915F914F913F912F910F9090
S1131D200BBE0F900FBE0F901F901895F8940E9451
S1131D30AD000E9441038ADF90DF0E94B2000E943E
S1131D4079020E9428030E94680478940E94B900D2
S1131D500E942001FFCF0CD0E6C0DED040F0D5D0E9
S1131D6030F021F45F3F19F0C7C0511110C1CAC04F
S1131D70EBD098F39923C9F35523B1F3951B550B75
S1131D80BB27AA2762177307840738F09F5F5F4F4A
S1131D90220F331F441FAA1FA9F333D00E2E3AF08B
S1131DA0E0E830D091505040E695001CCAF729D0A5
S1131DB0FE2F27D0660F771F881FBB1F26173707F4
S1131DC04807AB07B0E809F0BB0B802DBF01FF2724
S1131DD093585F4F2AF09E3F510568F08DC0D7C0DD
S1131DE05F3FECF3983EDCF3869577956795B7955E
S1131DF0F7959F5FC9F7880F911D9695879597F979
S1131E000895E1E0660F771F881FBB1F62177307F1
S1131E108407BA0720F0621B730B840BBA0BEE1F06
S1131E2088F7E095089598D088F09F5790F0B92FDF
S1131E309927B751A0F0D1F0660F771F881F991F1B
S1131E401AF0BA95C9F712C0B13081F09FD0B1E051
S1131E5008959CC0672F782F8827B85F39F0B93F61
S1131E60CCF3869577956795B395D9F73EF490951D
S1131E708095709561957F4F8F4F9F4F0895E8949B
S1131E8009C097FB3EF490958095709561957F4FBE
S1131E908F4F9F4F9923A9F0F92F96E9BB2793956C
S1131EA0F695879577956795B795F111F8CFFAF47C
S1131EB0BB0F11F460FF1BC06F5F7F4F8F4F9F4FAD
S1131EC016C0882311F096E911C0772321F09EE80B
S1131ED0872F762F05C0662371F096E8862F70E071
S1131EE060E02AF09A95660F771F881FDAF7880F4B
S1131EF09695879597F9089597F99F6780E870E01C
S1131F0060E008959FEF80EC089500240A9416166B
S1131F10170618060906089500240A9412161306D3
S1131F20140605060895092E0394000C11F4882361
S1131F3052F0BB0F40F4BF2B11F460FF04C06F5F7D
S1131F407F4F8F4F9F4F089557FD9058440F551F53
S1131F5059F05F3F71F04795880F97FB991F61F027
S1131F609F3F79F087950895121613061406551F9E
S1131F70F2CF4695F1DF08C0161617061806991F0A
S1131F80F1CF86957105610508940895E894BB27FF
S1131F9066277727CB0197F90895EE0FFF1F881F57
S1131FA08BBF0790F691E02D1994A29FB001B39FC7
S1131FB0C001A39F700D811D1124911DB29F700D4E
S1131FC0811D1124911D0895FC0188279927E89407
S1131FD021912032E9F3293010F02E30C8F32B324E
S1131FE039F02D3231F4689403C054D0820F911D1E
S1131FF0219120532A30C8F31EF4909581959F4F68
S11320000895911106C080538A5010F0865C06C072
S1132010089599278827089585FDFBCF8062911143
S1132020F8CF81568A51E0F7089540E552E00BC09D
S1132030FB01DC010D900020E9F7119701900D924E
S11320400020E1F70895FA01A191B081009719F4F5
S11320501097E1F0CD01DC01CD010D90002011F4C9
S1132060C00113C0FB012191222319F02015D9F7D7
S1132070F3CFFB012191201519F41E92119606C08D
S11320802223C1F70D900020A1F7D001FA01A193FA
S1132090B08308957AE0979F902D879F802D910DAE
S10B20A011240895F894FFCF08
S11320A801004231004331004431004531004631DA
S11320B800423200433200443200453200463200C6
S11320C8423300433300443300453300463300426F
S11320D83400433400443400453400463400423567
S11320E8004335004435004535004635002C2000B2
S9030000FC
